:100000000C946B000C9488000C9488000C9488006D
:100010000C9488000C94E6040C9488000C948800DE
:100020000C9488000C9488000C9488000C94880030
:100030000C9488000C9488000C9488000C94880020
:100040000C9488000C9488000C9488000C94880010
:100050000C94880007634236B79BD8A71A396856B4
:1000600018AEBAAB558C1D3CB7CC5763BD6DEDFDDA
:10007000753EF6177231BF000000803F0800000097
:10008000BE922449123EABAAAA2ABECDCCCC4C3E8D
:1000900000000080BEABAAAAAA3E00000000BF007C
:1000A0000000803F0000000000084178D3BB438778
:1000B000D1133D190E3CC3BD4282AD2B3E68EC828C
:1000C00076BED98FE1A93E4C80EFFFBE01C4FF7F11
:1000D0003F000000000011241FBECFE5D8E0DEBFC6
:1000E000CDBF10E0A0E6B0E0EAE5F3E102C0059084
:1000F0000D92AC3BB107D9F720E0ACEBB0E001C00A
:100100001D92AC3BB207E1F70E9410020C94AB09C0
:100110000C940000CF93DF93EC010E942305811122
:100120000EC061E080EA0E943605863041F461E04D
:10013000CE010E947D058D3011F40E946D05DF9186
:10014000CF910895CF92DF92EF92FF920F931F937A
:10015000CF93DF937C01EC018C01005F1F4F6E0198
:10016000CE010E948A002196F601608170E080E055
:1001700090E00E94AE01C017D10789F7FFEF20E79A
:1001800082E0F15020408040E1F700C0000060E0D4
:1001900082E00E94020294E1E90EF11CE801C8012C
:1001A0000E948A000F5F1F4F688170E080E090E03E
:1001B0000E94AE010E151F0589F7DF91CF911F91A7
:1001C0000F91FF90EF90DF90CF900895CF93C82FBD
:1001D00060E081E00E94170460E082E00E94170462
:1001E000C4FB662760F984E10E941704C5FB6627FB
:1001F00060F985E10E941704C6FB662760F986E175
:100200000E9417046C2F661F6627661F87E10E94F5
:10021000170461E083E00E94170489EF90E00197E2
:10022000F1F700C0000060E083E00E94170489EF4E
:1002300090E00197F1F700C000006C2F617084E13D
:100240000E941704C1FB662760F985E10E9417042C
:10025000C2FB662760F986E10E941704C3FB66278C
:1002600060F987E10E94170461E083E00E941704AF
:1002700089EF90E00197F1F700C0000060E083E0B3
:100280000E94170489EF90E00197F1F700C0000089
:10029000CF910895CF93C82F61E081E00E941704A9
:1002A00060E082E00E941704C4FB662760F984E1E5
:1002B0000E941704C5FB662760F985E10E941704B8
:1002C000C6FB662760F986E10E9417046C2F661F43
:1002D0006627661F87E10E94170461E083E00E94A1
:1002E000170489EF90E00197F1F700C0000060E08B
:1002F00083E00E94170489EF90E00197F1F700C0B6
:1003000000006C2F617084E10E941704C1FB662716
:1003100060F985E10E941704C2FB662760F986E157
:100320000E941704C3FB662760F987E10E94170447
:1003300061E083E00E94170489EF90E00197F1F7F4
:1003400000C0000060E083E00E94170489EF90E0A5
:100350000197F1F700C00000CF9108958F929F920E
:10036000AF92BF92EF92FF921F93CF93DF93CDB7DF
:10037000DEB760970FB6F894DEBF0FBECDBF611534
:1003800071058105910521F480E30E944A012AC08C
:1003900010E00F2EFAE08F2E912CA12CB12CF02D15
:1003A000EE24E394F12CEC0EFD1EE10EF11CA501F0
:1003B00094010E94FB05605DF70160831F5F622F5F
:1003C000732F842F952F611571058105910541F7D4
:1003D000112341F0FE01E10FF11D80810E944A01CD
:1003E0001150C1F760960FB6F894DEBF0FBECDBFB7
:1003F000DF91CF911F91FF90EF90BF90AF909F90B2
:100400008F900895813029F480E8860F0E94E600DD
:100410000895823021F480EC860F0E94E600089552
:100420003F924F925F926F927F928F929F92AF9284
:10043000BF92CF92DF92EF92FF920F931F93CF93D1
:10044000DF93CDB7DEB7E0970FB6F894DEBF0FBEEF
:10045000CDBF60E088E00E94150361E088E00E9463
:1004600017046894FF24F4F8FE013196DF012F2D64
:100470001D922A95E9F70E94A30580E00E94F004EE
:100480008E010F5E1F4FD8011D92FA94E9F780E6A6
:1004900090E00E94B405C8010E94CA058C018AE060
:1004A00090E00E94AC05F8019801205F3F4F9081D9
:1004B000905391932E173F07D1F7BFEFE0E7F2E09B
:1004C000B150E040F040E1F700C0000010E30F2E13
:1004D000F7E05F2EF02D5E0128E2A20EB11C3E0176
:1004E00081E2680E711C4E019CE2890E911CD501BF
:1004F000E52D1D92EA95E9F7D301E52D1D92EA95C8
:10050000E9F787E790E00E94B405C5010E94CA059B
:1005100098AB8FA76C018DE890E00E94B405C301F1
:100520000E94CA05382E492E8CA5811116C08BA5B4
:10053000882399F07E01F8E2EF0EF11C11E3D70158
:100540008D917D0180538A3028F08AE090E00E94EE
:10055000AC0510E38E149F0491F7A32DB42DEFA5E5
:10056000F8A99F012C5F3F4F9D918191981310E353
:10057000E217F307C9F7103361F485EA90E00E94AF
:10058000B405B5CF808180538193CE16DF06D1F7B5
:100590000AC080EB90E00E94B405EFA5F8A924E022
:1005A000C20ED11CEFCFBFEFE0E7F2E0B150E04068
:1005B000F040E1F700C0000060E088E00E9417040E
:1005C00060E080E10E94170460E081E10E9417046E
:1005D0000E94A30580E00E94F0040E94B404CE01B2
:1005E00001960E94A200CE0101960E94B405CE01A0
:1005F00001960E94CF0480E090E0E0960FB6F89458
:10060000DEBF0FBECDBFDF91CF911F910F91FF9045
:10061000EF90DF90CF90BF90AF909F908F907F90A2
:100620006F905F904F903F900895982F9695969574
:100630009695953008F0F9C08770613031F008F474
:10064000A4C0623009F451C0EFC09130C1F028F06D
:10065000923039F19330B9F1E7C04AB321E030E08C
:10066000B90102C0660F771F8A95E2F7CB0180952A
:10067000942F98239ABB9BB389238BBBD5C047B3D8
:1006800021E030E0B90102C0660F771F8A95E2F7DA
:10069000CB018095942F982397BB98B3892388BB6F
:1006A000C3C044B321E030E0B90102C0660F771F38
:1006B0008A95E2F7CB018095942F982394BB95B34C
:1006C000892385BBB1C041B321E030E0B90102C04C
:1006D000660F771F8A95E2F7CB018095942F9823B8
:1006E00091BB92B3892382BB9FC09130C1F028F0A7
:1006F000923039F19330B9F197C04AB321E030E03C
:10070000B90102C0660F771F8A95E2F7CB01962FD9
:10071000909594239ABB9BB3892B8BBB85C047B321
:1007200021E030E0B90102C0660F771F8A95E2F739
:10073000CB01962F9095942397BB98B3892B88BBB8
:1007400073C044B321E030E0B90102C0660F771FE7
:100750008A95E2F7CB01962F9095942394BB95B39D
:10076000892B85BB61C041B321E030E0B90102C0F3
:10077000660F771F8A95E2F7CB01962F9095942309
:1007800091BB92B3892B82BB4FC09130C1F028F04E
:10079000923039F19330B9F147C04BB321E030E0EA
:1007A000B90102C0660F771F8A95E2F7CB01962F39
:1007B000909594239BBB9AB3892B8ABB35C048B3D1
:1007C00021E030E0B90102C0660F771F8A95E2F799
:1007D000CB01962F9095942398BB97B3892B87BB19
:1007E00023C045B321E030E0B90102C0660F771F96
:1007F0008A95E2F7CB01962F9095942395BB94B3FD
:10080000892B84BB11C042B321E030E0B90102C0A2
:10081000660F771F8A95E2F7CB01962F9095942368
:1008200092BB91B3892B81BB089582E00895982FE4
:10083000969596959695953008F08EC0633008F0A1
:100840008DC08770613009F040C09130A1F028F070
:100850009230F9F0933059F183C04BB321E030E08E
:10086000B90102C0660F771F8A95E2F7CB01842B8E
:100870008BBB80E0089548B321E030E0B90102C0AD
:10088000660F771F8A95E2F7CB01842B88BB80E047
:10089000089545B321E030E0B90102C0660F771F2B
:1008A0008A95E2F7CB01842B85BB80E0089542B3A3
:1008B00021E030E0B90102C0660F771F8A95E2F7A8
:1008C000CB01842B82BB80E00895611144C091303C
:1008D000A9F028F0923009F1933071F143C04BB385
:1008E00021E030E0B90102C0660F771F8A95E2F778
:1008F000CB01809584238BBB80E0089548B321E031
:1009000030E0B90102C0660F771F8A95E2F7CB018C
:100910008095842388BB80E0089545B321E030E0D2
:10092000B90102C0660F771F8A95E2F7CB01809567
:10093000842385BB80E0089542B321E030E0B90113
:1009400002C0660F771F8A95E2F7CB01809584235A
:1009500082BB80E00895089582E0089583E00895C1
:1009600080E0089580E0089560E08CE00E94150327
:1009700060E08DE00E94150360E08FE00E941503A7
:1009800060E08CE00E94150361E08EE00E94150398
:1009900081E58DB908958FB9779BFECF08950F93A8
:1009A0001F93CF93FC018081882361F08F01C0E009
:1009B00080530E94CB04CF5FF801EC0FF11D8081C2
:1009C0008111F6CFCF911F910F9108951F920F9231
:1009D0000FB60F9211240F900FBE0F901F90189515
:1009E00011B8813049F028F0823049F0833051F05D
:1009F0000BC00898099808C0089A099805C008987B
:100A0000099A02C0089A099A61B1637070E080E0A7
:100A100090E00E942D079B01AC0160E070E080E84F
:100A200090E40E94C7079B01AC010E941E069B0137
:100A3000AC0160E070E080E890E40E948A060E94C9
:100A4000FC0660B9089586B7806886BF86B7806265
:100A500086BF86B7846086BF06B607FEFDCF91B11C
:100A6000987F81E0983009F480E00895662319F0BA
:100A70006130A9F029C083B986B7806886BF86B780
:100A8000846086BF06B607FEFDCF81B1887F8831BE
:100A9000E1F081B1887F8032D1F085E008958F5FE9
:100AA00083B986B7806886BF86B7846086BF06B67E
:100AB00007FEFDCF81B1887F803459F081B1887FF6
:100AC000883449F088E00895089582E0089583E02D
:100AD000089586E0089587E0089586B78F7D86BFE4
:100AE00086B7806886BF86B7806186BF86B7846018
:100AF00086BF06B604FCFDCF0895FC01662319F0FD
:100B0000613029F007C086B7806486BF03C086B70E
:100B10008F7B86BF96B7906896BF96B7946096BF56
:100B200006B607FEFDCF83B1808381B1887F803513
:100B300031F081B1887F883521F08EE008958CE016
:100B400008958DE0089510BC83E389B98AB1886166
:100B50008AB986E880BD08955D9BFECF8CB9089563
:100B60005F9BFECF8CB108950F931F93CF93FC0131
:100B70008081882359F08F01C0E00E94AC05CF5FCF
:100B8000F801EC0FF11D80818111F7CFCF911F91FA
:100B90000F9108950F931F93CF938C01C0E001C074
:100BA000C92F0E94B005F801EC0FF11D808391E080
:100BB0009C0F8A3011F08D3099F7CE5FF801EC0F61
:100BC000F11D1082F8018081882349F0319680E080
:100BD00090E00196AC0121912111FBCF02C040E0D1
:100BE00050E0400F511FFA0131971082C801CF9198
:100BF0001F910F910895A1E21A2EAA1BBB1BFD01A4
:100C00000DC0AA1FBB1FEE1FFF1FA217B307E407EB
:100C1000F50720F0A21BB30BE40BF50B661F771F43
:100C2000881F991F1A9469F7609570958095909523
:100C30009B01AC01BD01CF0108955058BB27AA27E5
:100C40000E9435060C948D070E947F0738F00E94A1
:100C5000860720F039F49F3F19F426F40C947C07A2
:100C60000EF4E095E7FB0C946807E92F0E949E07BD
:100C700058F3BA17620773078407950720F079F4D1
:100C8000A6F50C94C0070EF4E0950B2EBA2FA02DFC
:100C90000B01B90190010C01CA01A0011124FF2729
:100CA000591B99F0593F50F4503E68F11A16F04024
:100CB000A22F232F342F4427585FF3CF4695379523
:100CC0002795A795F0405395C9F77EF41F16BA0BE8
:100CD000620B730B840BBAF09150A1F0FF0FBB1F96
:100CE000661F771F881FC2F70EC0BA0F621F731FDF
:100CF000841F48F4879577956795B795F7959E3F3C
:100D000008F0B0CF9395880F08F09927EE0F9795CC
:100D1000879508950E949E060C948D070E94860771
:100D200058F00E947F0740F029F45F3F29F00C94AF
:100D3000680751110C94C1070C947C070E949E0710
:100D400068F39923B1F3552391F3951B550BBB27FA
:100D5000AA2762177307840738F09F5F5F4F220F3F
:100D6000331F441FAA1FA9F335D00E2E3AF0E0E836
:100D700032D091505040E695001CCAF72BD0FE2F80
:100D800029D0660F771F881FBB1F26173707480714
:100D9000AB07B0E809F0BB0B802DBF01FF279358CC
:100DA0005F4F3AF09E3F510578F00C9468070C9421
:100DB000C1075F3FE4F3983ED4F386957795679536
:100DC000B795F7959F5FC9F7880F911D9695879501
:100DD00097F90895E1E0660F771F881FBB1F621720
:100DE00073078407BA0720F0621B730B840BBA0BDE
:100DF000EE1F88F7E09508950E94A60788F09F5798
:100E000098F0B92F9927B751B0F0E1F0660F771F2E
:100E1000881F991F1AF0BA95C9F714C0B13091F024
:100E20000E94C007B1E008950C94C007672F782F87
:100E30008827B85F39F0B93FCCF3869577956795E9
:100E4000B395D9F73EF490958095709561957F4F55
:100E50008F4F9F4F0895E89409C097FB3EF49095FB
:100E60008095709561957F4F8F4F9F4F9923A9F083
:100E7000F92F96E9BB279395F69587957795679512
:100E8000B795F111F8CFFAF4BB0F11F460FF1BC056
:100E90006F5F7F4F8F4F9F4F16C0882311F096E9E9
:100EA00011C0772321F09EE8872F762F05C0662397
:100EB00071F096E8862F70E060E02AF09A95660F50
:100EC000771F881FDAF7880F9695879597F9089509
:100ED00097F99F6780E870E060E008959F3F31F0E8
:100EE000915020F4879577956795B795880F911D58
:100EF0009695879597F908959FEF80EC08950024C3
:100F00000A941616170618060906089500240A946E
:100F100012161306140605060895092E0394000CF4
:100F200011F4882352F0BB0F40F4BF2B11F460FF83
:100F300004C06F5F7F4F8F4F9F4F089557FD9058AC
:100F4000440F551F59F05F3F71F04795880F97FB8D
:100F5000991F61F09F3F79F0879508951216130647
:100F60001406551FF2CF4695F1DF08C01616170676
:100F70001806991FF1CF86957105610508940895AB
:100F8000E894BB2766277727CB0197F90895FA01E4
:100F9000EE0FFF1F309621053105A1F16115710596
:100FA00061F48038BFE39B0749F16894903881056C
:100FB00061F08038BFEF9B0741F099234AF5FF3F6E
:100FC000E1053105210519F1E8940894E795D90167
:100FD000AA2329F4AB2FBE2FF85FD0F310C0FF5F18
:100FE00070F4A695E0F7F73950F019F0FF3A38F4AD
:100FF0009F779F930DD00F9007FC9058089546F06F
:101000000C947C0760E070E080E89FE308954FE770
:101010009F775F934F933F932F930E94C2082F9126
:101020003F914F915F910E943E090C941F0829F453
:1010300016F00C9468070C94C0070C947C070E946F
:10104000A607A8F39638A0F707F80F92E8942BE3C9
:101050003AEA48EB5FE70E9454090F920F920F9211
:101060004DB75EB70F920E940A09E4E5F0E00E94D6
:1010700051084F915F91EF91FF91E595EE1FFF1F92
:1010800049F0FE57E0684427EE0F441FFA95E1F758
:101090004195550B0E9484080F9007FE0C94780828
:1010A0000895DF93CF931F930F93FF92EF92DF92F8
:1010B0007B018C01689406C0DA2EEF010E94510971
:1010C000FE01E894A5912591359145915591A6F39E
:1010D000EF010E943506FE019701A801DA9469F735
:1010E000DF90EF90FF900F911F91CF91DF910895C6
:1010F0009B01AC0160E070E080E89FE30C948A06FD
:101100000C9468070C946E070E94A607D8F39923E5
:10111000C9F3940F511DA3F39150504094F059F02E
:10112000882332F0660F771F881F91505040C1F717
:101130009E3F51052CF7880F911D9695879597F93D
:1011400008955F3FACF0983E9CF0BB27869577955D
:101150006795B79508F4B1609395C1F7BB0F58F741
:1011600011F460FFE8CF6F5F7F4F8F4F9F4FE3CF4A
:101170000C94C10716F00C946E070C947C076894CD
:101180000C9468070E94A607A8F39923C1F3AEF355
:10119000DF93CF931F930F93FF92C92FDD278823EF
:1011A0002AF02197660F771F881FDAF720E030E0DA
:1011B00040E85FEB9FE3883920F0803E38F02196CD
:1011C0008F770E941E06ECE7F0E004C00E941E0626
:1011D000E9EAF0E00E9451088B01BE01EC01FB2E10
:1011E0006F5771097595771F880B990B0E942D0712
:1011F00028E132E741E35FE30E945109AF2D9801F6
:10120000AE01FF900F911F91CF91DF910E943506A3
:101210000C948D07FA01DC01AA0FBB1F9B01AC01E6
:10122000BF5728F4222733274427507820C0B751CE
:1012300090F4AB2F0024469537952795011CA39574
:10124000D2F3002071F0220F331F441FB395DAF35D
:101250000ED00C941D0661307105A0E88A07B946CE
:1012600030F49B01AC016627772788279078309669
:1012700021F0208331834283538308950E945109D2
:101280000C948D070E947F0738F00E94860720F09B
:10129000952311F00C9468070C947C0711240C948E
:1012A000C1070E949E0770F3959FC1F3950F50E010
:1012B000551F629FF001729FBB27F00DB11D639F08
:1012C000AA27F00DB11DAA1F649F6627B00DA11DAE
:1012D000661F829F2227B00DA11D621F739FB00D54
:1012E000A11D621F839FA00D611D221F749F3327C4
:1012F000A00D611D231F849F600D211D822F762F5D
:101300006A2F11249F5750409AF0F1F088234AF039
:10131000EE0FFF1FBB1F661F771F881F91505040A5
:10132000A9F79E3F510580F00C9468070C94C10703
:101330005F3FE4F3983ED4F3869577956795B7952C
:10134000F795E7959F5FC1F7FE2B880F911D969546
:0A135000879597F90895F894FFCFF0
:10135A00506C6561736520456E74657220436172D5
:10136A00642050414E3A00506C6561736520456EA9
:10137A00746572204E65772050494E3A00506C656C
:10138A0061736520436F6E6669726D204E657720C2
:10139A0050494E3A0057726F6E672050494E2000EE
:0C13AA002066696E6973686564200000AD
:00000001FF
