S013000041544D204D616368696E652E737265635A
S11300000C9472000C948F000C948F000C948F004D
S11300100C948F000C94F8040C948F000C948F00B3
S11300200C948F000C948F000C948F000C948F0010
S11300300C948F000C948F000C948F000C948F0000
S11300400C948F000C948F000C948F000C948F00F0
S11300500C948F00D604DA04DE04E204E604EA0415
S1130060EE0407634236B79BD8A71A39685618AE10
S1130070BAAB558C1D3CB7CC5763BD6DEDFD753ED9
S1130080F6177231BF000000803F08000000BE92E6
S11300902449123EABAAAA2ABECDCCCC4C3E0000C9
S11300A00080BEABAAAAAA3E00000000BF00000068
S11300B0803F0000000000084178D3BB4387D11380
S11300C03D190E3CC3BD4282AD2B3E68EC8276BE28
S11300D0D98FE1A93E4C80EFFFBE01C4FF7F3F00F2
S11300E00000000011241FBECFE5D8E0DEBFCDBF65
S11300F010E0A0E6B0E0EAE7F3E102C005900D925B
S1130100AC3BB107D9F720E0ACEBB0E001C01D92E5
S1130110A33DB207E1F70E94AA010C94BB090C9419
S11301200000EF92FF920F931F93CF938C017B01FA
S1130130C42F0E943505811118C060E080EA0E9436
S11301404805823091F4C7010E947F05893069F423
S1130150CC2359F0F12CC8018F0D911D0E947F050D
S1130160893009F4F394FC16B0F30E949905CF91F9
S11301701F910F91FF90EF90089584EA86BF06B611
S113018007FEFDCF089583B984E886BF06B607FE4F
S1130190FDCF0895EF92FF921F93CF93DF93182F13
S11301A04423F1F0EB017B01E40EF11C0E94BD003D
S11301B080EA0E94C300812F0E94C3000E94BD00F8
S11301C081EA0E94C30061E0CE010E94A9058D303E
S11301D011F40E9499051F5F2196CE15DF0531F7B2
S11301E0DF91CF911F91FF90EF900895CF93C82F87
S11301F060E08AE10E94170460E08BE10E9417042A
S1130200C4FB662760F984E10E941704C5FB6627D6
S113021060F985E10E941704C6FB662760F986E150
S11302200E9417046C2F661F6627661F87E10E94D1
S1130230170461E08CE10E94170489EF90E00197B4
S1130240F1F700C0000060E08CE10E94170489EF20
S113025090E00197F1F700C000006C2F617084E119
S11302600E941704C1FB662760F985E10E94170408
S1130270C2FB662760F986E10E941704C3FB662768
S113028060F987E10E94170461E08CE10E94170481
S113029089EF90E00197F1F700C0000060E08CE185
S11302A00E94170489EF90E00197F1F700C0000065
S11302B0CF91089560E084E00E94150360E085E03A
S11302C00E94150360E086E00E94150360E087E069
S11302D00E94150360E08AE10E94150360E08BE14F
S11302E00E94150360E08CE10E94150383ED90E306
S11302F00197F1F700C0000082E00E94F60089EF48
S113030090E00197F1F700C0000088E20E94F60037
S113031089EF90E00197F1F700C000008CE00E94A3
S1130320F60089EF90E00197F1F700C0000081E04A
S11303300E94F60083EF91E00197F1F700C00000FE
S113034086E00E94F60089EF90E00197F1F700C083
S1130350000008952F923F925F926F927F928F9246
S11303609F92AF92BF92CF92DF92EF92FF920F9340
S11303701F93CF93DF93CDB7DEB7AD970FB6F89445
S1130380DEBF0FBECDBF83E00E94B40460E088E00E
S11303900E94150361E088E00E9417040E945A013C
S11303A00E94CF0582E00E9402056894992494F883
S11303B06E0127E1C20ED11C7E0187E2E80EF11C1A
S11303C0D601E92D1D92EA95E9F781E690E00E94B5
S11303D0E005C6010E94F605A82EB92E8FA1811151
S11303E018C08EA18823A9F08E01095E1F4F91E3E6
S11303F0D8018D918D0180538A3028F08AE090E0F5
S11304000E94D80590E30E151F0591F7903309F06B
S1130410D3C088E790E00E94E005D2CF8D9181930C
S11304202E173F07D9F710E30F2EF7E07F2EF02D9C
S11304306E01B7E2CB0ED11C7E01E7E1EE0EF11C9A
S11304405E01FBE2AF0EB11CD601E72D1D92EA95C9
S1130450E9F7D701E72D1D92EA95E9F783E890E0E3
S11304600E94E005C6010E94F6051C0189E990E09E
S11304700E94E005C7010E94F605582E692E8BA53F
S1130480811116C08AA5882399F04E01F7E28F0ED8
S1130490911C11E3D4018D914D0180538A3028F0D1
S11304A08AE090E00E94D80510E38A149B0491F737
S11304B0A52DB62DF10191012C5F3F4F9D918191A6
S11304C0981310E32E173F07C9F7103309F081C0C2
S11304D081EB90E00E94E005B7CF2D912193E817BE
S11304E0F907D9F740E162ED70E0CE0101960E9470
S11304F09100E7EAF1E63197F1F700C0000040E12E
S113050060E670E0CE0142960E94910087EA91E68F
S11305100197F1F700C0000040E161EC70E080E079
S11305200E94CA0044E06CEB70E080E10E94CA00C3
S113053081EC90E00E94E0058CEB90E00E94E005E5
S113054060E088E00E94170460E08CE00E941704D9
S11305508091C1008823A1F010E00E94F3041F5F82
S11305609FEFA0E7B2E09150A040B040E1F700C097
S11305700000E12FF0E0EF53FF4F80818111EDCFB8
S113058080E00E94F3048091BC00882369F110E0AC
S11305900E94F3041F5FEFEFF0E722E0E150F04028
S11305A02040E1F700C00000E12FF0E0E454FF4FE9
S11305B080818111EDCF18C0FE01319681E1DF0108
S11305C01D928A95E9F7AA2DBB2D9E012F5E3F4F00
S11305D025CFFE01729685E0DF011D928A95E9F729
S11305E0D101CE01469679CF80E00E94F30461E008
S11305F08CE00E94170480E090E0AD960FB6F8946A
S1130600DEBF0FBECDBFDF91CF911F910F91FF9041
S1130610EF90DF90CF90BF90AF909F908F907F909E
S11306206F905F903F902F900895982F9695969590
S11306309695953008F0F9C08770613031F008F470
S1130640A4C0623009F451C0EFC09130C1F028F069
S1130650923039F19330B9F1E7C04AB321E030E088
S1130660B90102C0660F771F8A95E2F7CB01809526
S1130670942F98239ABB9BB389238BBBD5C047B3D4
S113068021E030E0B90102C0660F771F8A95E2F7D6
S1130690CB018095942F982397BB98B3892388BB6B
S11306A0C3C044B321E030E0B90102C0660F771F34
S11306B08A95E2F7CB018095942F982394BB95B348
S11306C0892385BBB1C041B321E030E0B90102C048
S11306D0660F771F8A95E2F7CB018095942F9823B4
S11306E091BB92B3892382BB9FC09130C1F028F0A3
S11306F0923039F19330B9F197C04AB321E030E038
S1130700B90102C0660F771F8A95E2F7CB01962FD5
S1130710909594239ABB9BB3892B8BBB85C047B31D
S113072021E030E0B90102C0660F771F8A95E2F735
S1130730CB01962F9095942397BB98B3892B88BBB4
S113074073C044B321E030E0B90102C0660F771FE3
S11307508A95E2F7CB01962F9095942394BB95B399
S1130760892B85BB61C041B321E030E0B90102C0EF
S1130770660F771F8A95E2F7CB01962F9095942305
S113078091BB92B3892B82BB4FC09130C1F028F04A
S1130790923039F19330B9F147C04BB321E030E0E6
S11307A0B90102C0660F771F8A95E2F7CB01962F35
S11307B0909594239BBB9AB3892B8ABB35C048B3CD
S11307C021E030E0B90102C0660F771F8A95E2F795
S11307D0CB01962F9095942398BB97B3892B87BB15
S11307E023C045B321E030E0B90102C0660F771F92
S11307F08A95E2F7CB01962F9095942395BB94B3F9
S1130800892B84BB11C042B321E030E0B90102C09E
S1130810660F771F8A95E2F7CB01962F9095942364
S113082092BB91B3892B81BB089582E00895982FE0
S1130830969596959695953008F08EC0633008F09D
S11308408DC08770613009F040C09130A1F028F06C
S11308509230F9F0933059F183C04BB321E030E08A
S1130860B90102C0660F771F8A95E2F7CB01842B8A
S11308708BBB80E0089548B321E030E0B90102C0A9
S1130880660F771F8A95E2F7CB01842B88BB80E043
S1130890089545B321E030E0B90102C0660F771F27
S11308A08A95E2F7CB01842B85BB80E0089542B39F
S11308B021E030E0B90102C0660F771F8A95E2F7A4
S11308C0CB01842B82BB80E00895611144C0913038
S11308D0A9F028F0923009F1933071F143C04BB381
S11308E021E030E0B90102C0660F771F8A95E2F774
S11308F0CB01809584238BBB80E0089548B321E02D
S113090030E0B90102C0660F771F8A95E2F7CB0188
S11309108095842388BB80E0089545B321E030E0CE
S1130920B90102C0660F771F8A95E2F7CB01809563
S1130930842385BB80E0089542B321E030E0B9010F
S113094002C0660F771F8A95E2F7CB018095842356
S113095082BB80E00895089582E0089583E00895BD
S113096080E0089580E00895CF93C82F60E08DE083
S11309700E94150360E08FE00E94150360E08CE0A4
S11309800E94150362E08EE00E94150361E08CE092
S11309900E9417046E9A6C9A8C2F90E08730910510
S11309A000F5FC01E65DFF4F0C94270668986998F2
S11309B0709A17C068986998709813C0689A699873
S11309C0709A0FC0689A699870980BC06898699A71
S11309D0709A07C06898699A709803C0689A699A6F
S11309E07098CF9108958FB9779BFECF8FB10895FA
S11309F01F920F920FB60F9211240F900FBE0F90FB
S1130A001F90189511B8813049F028F0823049F0D0
S1130A10833051F00BC00898099808C0089A0998C7
S1130A2005C00898099A02C0089A099A61B16370CE
S1130A3070E080E090E00E943D079B01AC0160E023
S1130A4070E080E890E40E94D7079B01AC010E940B
S1130A502E069B01AC0160E070E080E89FE40E94F8
S1130A609A060E940C0760B9089586B7806886BF0D
S1130A7086B7806286BF86B7846086BF06B607FEE7
S1130A80FDCF91B1987F81E0983009F480E008951A
S1130A90662319F06130A9F029C083B986B780684C
S1130AA086BF86B7846086BF06B607FEFDCF81B1D8
S1130AB0887F8831E1F081B1887F8032D1F085E090
S1130AC008958F5F83B986B7806886BF86B78460D0
S1130AD086BF06B607FEFDCF81B1887F803459F00A
S1130AE081B1887F883449F088E00895089582E0D0
S1130AF0089583E0089586E0089587E00895FC0151
S1130B00808183B986B7806886BF86B7846086BFD4
S1130B1006B607FEFDCF81B1887F883231F081B1FE
S1130B20887F803321F08BE0089589E008958AE07E
S1130B30089586B78F7D86BF86B7806886BF86B7DF
S1130B40806186BF86B7846086BF06B604FCFDCF8D
S1130B500895FC01662319F0613029F007C086B7B7
S1130B60806486BF03C086B78F7B86BF96B79068C4
S1130B7096BF96B7946096BF06B607FEFDCF83B1C5
S1130B80808381B1887F803531F081B1887F883559
S1130B9021F08EE008958CE008958DE0089510BC56
S1130BA083E389B98AB188618AB986E880BD0895EA
S1130BB05D9BFECF8CB908955F9BFECF8CB10895E9
S1130BC00F931F93CF93FC018081882359F08F01E9
S1130BD0C0E00E94D805CF5FF801EC0FF11D8081C1
S1130BE08111F7CFCF911F910F9108950F931F9308
S1130BF0CF938C01C0E001C0C92F0E94DC05F8012D
S1130C00EC0FF11D808391E09C0F8A3011F08D3040
S1130C1099F7CE5FF801EC0FF11D1082F801808185
S1130C20882349F0319680E090E00196AC0121914F
S1130C302111FBCF02C040E050E0400F511FFA01E8
S1130C4031971082C801CF911F910F910895EE0F33
S1130C50FF1F0590F491E02D09945058BB27AA2753
S1130C600E9445060C949D070E948F0738F00E944D
S1130C70960720F039F49F3F19F426F40C948C075E
S1130C800EF4E095E7FB0C947807E92F0E94AE0779
S1130C9058F3BA17620773078407950720F079F4AD
S1130CA0A6F50C94D0070EF4E0950B2EBA2FA02DC8
S1130CB00B01B90190010C01CA01A0011124FF2705
S1130CC0591B99F0593F50F4503E68F11A16F04000
S1130CD0A22F232F342F4427585FF3CF46953795FF
S1130CE02795A795F0405395C9F77EF41F16BA0BC4
S1130CF0620B730B840BBAF09150A1F0FF0FBB1F72
S1130D00661F771F881FC2F70EC0BA0F621F731FBA
S1130D10841F48F4879577956795B795F7959E3F17
S1130D2008F0B0CF9395880F08F09927EE0F9795A8
S1130D30879508950E94AE060C949D070E9496071D
S1130D4058F00E948F0740F029F45F3F29F00C947B
S1130D50780751110C94D1070C948C070E94AE07AC
S1130D6068F39923B1F3552391F3951B550BBB27D6
S1130D70AA2762177307840738F09F5F5F4F220F1B
S1130D80331F441FAA1FA9F335D00E2E3AF0E0E812
S1130D9032D091505040E695001CCAF72BD0FE2F5C
S1130DA029D0660F771F881FBB1F261737074807F0
S1130DB0AB07B0E809F0BB0B802DBF01FF279358A8
S1130DC05F4F3AF09E3F510578F00C9478070C94ED
S1130DD0D1075F3FE4F3983ED4F386957795679502
S1130DE0B795F7959F5FC9F7880F911D96958795DD
S1130DF097F90895E1E0660F771F881FBB1F6217FC
S1130E0073078407BA0720F0621B730B840BBA0BB9
S1130E10EE1F88F7E09508950E94B60788F09F5763
S1130E2098F0B92F9927B751B0F0E1F0660F771F0A
S1130E30881F991F1AF0BA95C9F714C0B13091F000
S1130E400E94D007B1E008950C94D007672F782F43
S1130E508827B85F39F0B93FCCF3869577956795C5
S1130E60B395D9F73EF490958095709561957F4F31
S1130E708F4F9F4F0895E89409C097FB3EF49095D7
S1130E808095709561957F4F8F4F9F4F9923A9F05F
S1130E90F92F96E9BB279395F695879577956795EE
S1130EA0B795F111F8CFFAF4BB0F11F460FF1BC032
S1130EB06F5F7F4F8F4F9F4F16C0882311F096E9C5
S1130EC011C0772321F09EE8872F762F05C0662373
S1130ED071F096E8862F70E060E02AF09A95660F2C
S1130EE0771F881FDAF7880F9695879597F90895E5
S1130EF097F99F6780E870E060E008959F3F31F0C4
S1130F00915020F4879577956795B795880F911D33
S1130F109695879597F908959FEF80EC089500249E
S1130F200A941616170618060906089500240A944A
S1130F3012161306140605060895092E0394000CD0
S1130F4011F4882352F0BB0F40F4BF2B11F460FF5F
S1130F5004C06F5F7F4F8F4F9F4F089557FD905888
S1130F60440F551F59F05F3F71F04795880F97FB69
S1130F70991F61F09F3F79F0879508951216130623
S1130F801406551FF2CF4695F1DF08C01616170652
S1130F901806991FF1CF8695710561050894089587
S1130FA0E894BB2766277727CB0197F90895FA01C0
S1130FB0EE0FFF1F309621053105A1F16115710572
S1130FC061F48038BFE39B0749F168949038810548
S1130FD061F08038BFEF9B0741F099234AF5FF3F4A
S1130FE0E1053105210519F1E8940894E795D90143
S1130FF0AA2329F4AB2FBE2FF85FD0F310C0FF5FF4
S113100070F4A695E0F7F73950F019F0FF3A38F488
S11310109F779F930DD00F9007FC9058089546F04A
S11310200C948C0760E070E080E89FE308954FE73C
S11310309F775F934F933F932F930E94D2082F91F2
S11310403F914F915F910E944E090C942F0829F40F
S113105016F00C9478070C94D0070C948C070E941B
S1131060B607A8F39638A0F707F80F92E8942BE395
S11310703AEA48EB5FE70E9464090F920F920F92DD
S11310804DB75EB70F920E941A09E2E6F0E00E94A3
S113109061084F915F91EF91FF91E595EE1FFF1F5E
S11310A049F0FE57E0684427EE0F441FFA95E1F734
S11310B04195550B0E9494080F9007FE0C948808E4
S11310C00895DF93CF931F930F93FF92EF92DF92D4
S11310D07B018C01689406C0DA2EEF010E9461093D
S11310E0FE01E894A5912591359145915591A6F37A
S11310F0EF010E944506FE019701A801DA9469F701
S1131100DF90EF90FF900F911F91CF91DF910895A1
S11311109B01AC0160E070E080E89FE30C949A06C8
S11311200C9478070C947E070E94B607D8F3992391
S1131130C9F3940F511DA3F39150504094F059F00A
S1131140882332F0660F771F881F91505040C1F7F3
S11311509E3F51052CF7880F911D9695879597F919
S113116008955F3FACF0983E9CF0BB278695779539
S11311706795B79508F4B1609395C1F7BB0F58F71D
S113118011F460FFE8CF6F5F7F4F8F4F9F4FE3CF26
S11311900C94D10716F00C947E070C948C07689479
S11311A00C9478070E94B607A8F39923C1F3AEF311
S11311B0DF93CF931F930F93FF92C92FDD278823CB
S11311C02AF02197660F771F881FDAF720E030E0B6
S11311D040E85FEB9FE3883920F0803E38F02196A9
S11311E08F770E942E06EAE8F0E004C00E942E06E3
S11311F0E7EBF0E00E9461088B01BE01EC01FB2EDD
S11312006F5771097595771F880B990B0E943D07DD
S113121028E132E741E35FE30E946109AF2D9801C1
S1131220AE01FF900F911F91CF91DF910E9445066F
S11312300C949D07FA01DC01AA0FBB1F9B01AC01B2
S1131240BF5728F4222733274427507820C0B751AA
S113125090F4AB2F0024469537952795011CA39550
S1131260D2F3002071F0220F331F441FB395DAF339
S11312700ED00C942D0661307105A0E88A07B9469A
S113128030F49B01AC016627772788279078309645
S113129021F0208331834283538308950E9461099E
S11312A00C949D070E948F0738F00E94960720F047
S11312B0952311F00C9478070C948C0711240C944A
S11312C0D1070E94AE0770F3959FC1F3950F50E0CC
S11312D0551F629FF001729FBB27F00DB11D639FE4
S11312E0AA27F00DB11DAA1F649F6627B00DA11D8A
S11312F0661F829F2227B00DA11D621F739FB00D30
S1131300A11D621F839FA00D611D221F749F33279F
S1131310A00D611D231F849F600D211D822F762F38
S11313206A2F11249F5750409AF0F1F088234AF015
S1131330EE0FFF1FBB1F661F771F881F9150504081
S1131340A9F79E3F510580F00C9478070C94D107BF
S11313505F3FE4F3983ED4F3869577956795B79508
S1131360F795E7959F5FC1F7FE2B880F911D969522
S10D1370879597F90895F894FFCFCC
S113137A10506C6561736520456E74657220436113
S113138A72642050414E3A0057726F6E6720504182
S113139A4E2000506C6561736520456E7465722039
S11313AA4E65772050494E3A00506C65617365204A
S11313BA436F6E6669726D204E65772050494E3AC6
S10F13CA0057726F6E672050494E2000DF
S9030000FC
